:020000040800F2
:100000000000022061020008B92800084B1B00080C
:10001000B5280008FB0A0008F15E00080000000097
:10002000000000000000000000000000A101000826
:10003000B90E000800000000FD0100080D42000894
:100040007B0200087B0200087B0200087B0200089C
:100050007B0200087B0200087B0200087B0200088C
:100060007B0200087B0200087B0200087B0200087C
:100070007B0200087B0200087B0200087B0200086C
:100080007B0200087B0200087B0200087B0200085C
:100090007B0200087B0200087B0200087B0200084C
:1000A0007B0200087B0200087B0200089D440008D8
:1000B0007B0200087B0200087B0200087B0200082C
:1000C0007B0200087B0200087B0200087B0200081C
:1000D0007B020008E55900087B020008A55B0008C8
:1000E0007B0200087B0200087B0200087B020008FC
:1000F0007B020008494B00087B0200087B020008D5
:100100007B0200087B0200087B0200087B020008DB
:1001100031580008095900087B0200087B020008DA
:100120007B020008290E00087B0200087B02000801
:100130007B0200087B0200087B0200087B020008AB
:100140007B0200087B0200087B0200087B0200089B
:100150007B0200087B0200087B020008B55B0008F8
:100160007B0200087B0200087B0200087B0200087B
:100170007B0200087B0200087B02000800000000F0
:100180007B0200087B020008DFF810D000F0EEF8D8
:10019000004800473D630008AFF3008000000220E4
:1001A0002C4B19680868B0E8F04F80F30988BFF35A
:1001B0006F8F4FF0000080F311887047000000003F
:1001C00008480068006880F308884FF0000080F35A
:1001D000148862B661B6BFF34F8FBFF36F8F00DF35
:1001E00000BF00BF08ED00E0DFF80C00016841F43B
:1001F00070010160704700BF88ED00E0EFF30980F7
:10020000BFF36F8F134B1A681EF0100F08BF20ED5D
:10021000108A20E9F04F106009B44FF0B00080F36D
:100220001188BFF34F8FBFF36F8F06F025FD4FF09E
:10023000000080F3118809BC19680868B0E8F04F25
:100240001EF0100F08BFB0EC108A80F30988BFF3CE
:100250006F8F704700000020EFF3058070470000AB
:100260000648804706480047FEE7FEE7FEE7FEE750
:10027000FEE7FEE7FEE7FEE7FEE7FEE721440008B3
:10028000890100082DE9F05F0546002092469B4653
:1002900088460646814640241BE02846414647469C
:1002A000224600F053F853465A46C01A914110D3E3
:1002B00011461846224600F03AF82D1A67EB01085D
:1002C0004F4622460120002100F031F817EB0009CB
:1002D0004E41201EA4F10104DFDC484631462A4687
:1002E0004346BDE8F09F40EA01039B0703D009E0C5
:1002F00008C9121F08C0042AFAD203E011F8013B12
:1003000000F8013B521EF9D27047D2B201E000F86A
:10031000012B491EFBD270470022F6E710B51346A9
:100320000A4604461946FFF7F0FF204610BD202A72
:1003300004DB203A00FA02F1002070479140C2F13C
:10034000200320FA03F3194390407047202A04DB6E
:10035000203A21FA02F00021704721FA02F3D0403E
:10036000C2F120029140084319467047064C074DE0
:1003700006E0E06840F0010394E807009847103475
:10038000AC42F6D3FFF704FF34CB030864CB030879
:1003900070B58C1810F8015B15F0070301D110F847
:1003A000013B2A1106D110F8012B03E010F8016B74
:1003B00001F8016B5B1EF9D12B0705D40023521EF7
:1003C0000DD401F8013BFAE710F8013BCB1A921C5F
:1003D00003E013F8015B01F8015B521EF9D5A1425D
:1003E000D8D3002070BD000030B58BB004460D4658
:1003F00002208DF8040021780A480AAA43690A48B5
:1004000098478DF806000DF10700BDF8281001800F
:1004100000BF03208DF805000448016801A8884743
:100420000BB030BD14CA030800480040C4C803081C
:1004300070B58AB004460E46257809A9601C00F004
:10044000C3FB0C48294682680B4890470948BDF811
:100450002420294603690848984703208DF80000A6
:1004600000208DF8010005480168684688470AB0F9
:1004700070BD000014CA030800480040C4C8030847
:100480007047000070B5049C0F4D05EB40152960C6
:100490000D4D05EB40156A600B4D05EB40152B72B9
:1004A000094D05EB4015EC600025074E06EB4016A4
:1004B0003574054E06EB401675615525024E06EB68
:1004C0004016B56170BD000084250020FEB50546CC
:1004D0000E46284600F0FCFF0446009404F14C0050
:1004E00001904C4802904C49681A8D425AD006DC63
:1004F0004A48284400B3B0F5806F7CD137E0B0F5AE
:10050000404F03D0B0F5444F7DD160E04448E065F2
:10051000444820660720A066424860660520E066E1
:100520004FF48070A060E0603F4820603F4860600A
:10053000002084F8780067E038484042E0653C4895
:1005400020660320A0663A4860660120E06600024B
:10055000A0608020E060374820603748606002205B
:1005600084F8780035482067401560674CE03448CF
:10057000E0652F4820660420A0662D4860660220B2
:10058000E0660002A0604010E0602E4820602E4827
:100590006060032084F878002C4820674FF4004006
:1005A000606731E01C48E065214820660720A066AE
:1005B0001F4860660020E0668020A060E06024485C
:1005C000206024486060042084F878001CE0224801
:1005D000E065144820660620A06612486066022086
:1005E000E0660002A0604010E0601C4820601C48EB
:1005F0006060052000E006E084F878001948206774
:100600008020606700E000BF00BF6846316888470F
:10061000FEBD0000FC0A00200050004000B8FFBFF3
:100620000010014000640240940C0020940D002052
:1006300000600240940E0020940F0020000C024045
:10064000004C004014100020141200200000024052
:1006500014130020941300200014014014140020EF
:10066000141600200008024000B587B04FF48060E7
:1006700001900220029001200490002005900320A8
:1006800003900720069001A9FE4801F0CEFC4FF42C
:100690000070019002200290002004900590032039
:1006A00003900720069001A9F64801F0BEFC202027
:1006B000019000200290049005900320039001A96E
:1006C000F14801F0B2FC4021EF4801F04AFD402022
:1006D00001900120029000200490059003200390D7
:1006E00001A9E94801F0A1FC4FF4806001900220CB
:1006F00002900020049005900320039008200690AB
:1007000001A9E24801F091FC4FF40041DD4801F0FD
:1007100028FD4FF400400190012002900020049039
:1007200005900320039001A9D64801F07EFC4FF408
:100730008070019002200290002004900590032018
:1007400003900720069001A9CF4801F06EFC4FF4FA
:100750000071CD4801F005FD4FF4007001900120BB
:1007600002900020049005900320039001A9C64840
:1007700001F05BFC04200190022002900120049013
:1007800000200590032003900820069001A9BE4890
:1007900001F04BFC4FF480500190022002900020A9
:1007A00004900590032003900820069001A9B74803
:1007B00001F03BFC402001900220029000200490B8
:1007C0000590032003900820069001A9AF4801F08E
:1007D0002CFC8021AD4801F0C4FC80200190012058
:1007E00002900020049005900320039001A9A748DF
:1007F00001F01BFC1021A34801F0BFFC1020019068
:10080000012002900020049005900320039001A98C
:100810009C4801F00AFCE020019002200290002098
:1008200004900590032003900520069001A99548A7
:1008300001F0FBFB8021964801F09FFC8020019095
:10084000012002900020049005900320039001A94C
:100850008F4801F0EAFB4FF480618B4801F08DFC7A
:100860004FF48060019001200290002004900590D8
:100870000320039001A9844801F0D7FB4FF40061E5
:10088000814801F07AFC4FF4006001900120029051
:100890000020049005900320039001A97A4801F0FC
:1008A000C4FB4FF40071794801F067FC4FF400700D
:1008B00001900120029000200490059003200390F5
:1008C00001A9724801F0B1FB4FF4007001900220C1
:1008D00002900020049005900320039001200690D0
:1008E00001A96B4801F0A1FB4FF4006001900220C8
:1008F00002900020049005900320039001200690B0
:1009000001A9634801F091FB4FF4005001900220CF
:10091000029000200490059003200390012006908F
:1009200001A95B4801F081FB4FF480400190022057
:10093000029000200490059003200390012006906F
:1009400001A9534801F071FB4FF48071504801F048
:1009500014FC4FF48070019001200290002004905C
:1009600005900320039001A9494801F05EFB4FF474
:100970008061474801F001FC4FF480600190012044
:1009800002900020049005900320039001A94048A4
:1009900001F04BFB4FF480513D4801F0EEFB4FF46A
:1009A00080500190012002900020049005900320C7
:1009B000039001A9364801F038FB4FF40041344858
:1009C00001F0DBFB4FF40040019001200290002079
:1009D000049005900320039001A92D4801F025FB08
:1009E0004FF40040019001200290002004900590F7
:1009F0000320039001A9244801F017FB4FF4804025
:100A000001900120029000200490059003200390A3
:100A100001A91D4801F009FB4FF40050019001208D
:100A200002900020049005900320039001A916482D
:100A300001F0FBFA4FF48050019001200290002059
:100A4000049005900320039001A90F4801F0EDFAEE
:100A50000120019002900020049005900320039053
:100A600001A9084801F0E1FA02200190012002905A
:100A70000020049005900320039001A9014801F093
:100A8000D4FA07E000000240000C024000080240D7
:100A900000100240042001900120029000200490E8
:100AA00005900320039001A9104801F0BEFA082028
:100AB00001900120029000200490059003200390F3
:100AC00001A90A4801F0B1FA4FF4807001900220A8
:100AD00002900020049001200590032003900690CE
:100AE00001A9034801F0A1FA07B000BD00000240CF
:100AF0000008024010B5029C10BD00BFFEE70000D8
:100B0000F8B504460D4616461F468DF800408DF890
:100B100001508DF802608DF8037000231A46694673
:100B20000248006806F05CFAF8BD0000B40000203E
:100B300070B530B1012812D002281ED003283ED152
:100B40002FE0012900D049B9012B02D100241D4D0D
:100B50002C70022B02D101241A4D2C7030E0012997
:100B600000D049B9012B02D10124164D6C70022B23
:100B700002D10024134D6C7022E0022910D1012A09
:100B80000ED1104CA478032C07DA0E4CA4780D4D2E
:100B9000AD786D1C0B4EB57000E00024094DAC70B3
:100BA0000EE0012900D049B9012B02D10124054DE5
:100BB000EC70022B02D10024024DEC7000E000BF6B
:100BC00000BF70BDAC00002002880A807047028818
:100BD0000A80704702880A80704702680A6070477E
:100BE00002680A60704701468878CB7818440B7910
:100BF000C218002005E04B1D1B5C13449AB2431C35
:100C0000D8B2CB789B1E8342F5DCD04382B2D2B2FD
:100C100010467047024610785378C118002005E04E
:100C2000931C1B5C0B4499B2431CD8B213789B1ED7
:100C30008342F5DCC84381B2C9B20846704710B59B
:100C4000044604F1100000F07AFA18B1204604F0CE
:100C500057FD01E00020A06410BD00003EB5044631
:100C60000648074900234022CDE90041029005A132
:100C7000094806F093FB094908603EBD042700209F
:100C800004260020427574746F6E7343616C6C624D
:100C900061636B5461736B00294D0008580B002091
:100CA0003EB504460648074900234022CDE90041ED
:100CB000029005A1084806F071FB084908603EBD96
:100CC0005828002058270020427574746F6E7350A6
:100CD0006F6C6C5461736B00794D00085C0B0020E5
:100CE0003EB504460748084900234FF40072CDE999
:100CF0000041029005A1084806F050FB0749086032
:100D00003EBD0000983100209829002047616D65A4
:100D10005461736B000000000D4E0008600B002052
:100D20003EB504460748084900234FF40072CDE958
:100D30000041029005A1084806F030FB0749086011
:100D40003EBD0000EC390020EC3100204772697094
:100D50007065725461736B00614E0008680B00206F
:100D60003EB504460748084900234FF40072CDE918
:100D70000041029005A1094806F010FB08490860EF
:100D80003EBD000040420020403A00204F646F6D9D
:100D9000657472795461736B00000000D9500008CB
:100DA000700B00203EB504460748084900234FF465
:100DB0000072CDE90041029005A1094806F0EEFA63
:100DC000084908603EBD0000944A0020944200207B
:100DD0005465726D696E616C5461736B0000000044
:100DE00011510008740B00203EB50446074808491D
:100DF00000234FF40072CDE90041029005A108489C
:100E000006F0CCFA074908603EBD0000E852002019
:100E1000E84A0020537465707065725461736B000A
:100E200071510008880B002010B500F001F810BDCA
:100E300010B500BF1D480068C0F3C020A0B300BFBC
:100E40004FF400601949886000BF08460121184A24
:100E5000525C8258C2F3001232B300BF144A525C93
:100E6000825822F01002124B5B5CC25000BF00BFE0
:100E70000F4A525C825822F001020D4B5B5CC2505B
:100E800000BF80150B49096A81430A4A116200BFFD
:100E9000104601F0F9F900BF0648006820F0010093
:100EA0000449086000BF00BF10BD0000006402409C
:100EB000A8C90308000401407047000010B50446AB
:100EC00005F0D2FE2021124801F0AAF9114A52F889
:100ED0002410114A52F8240001F046F9A8210C48C8
:100EE00001F0B1F900BF0A4801F083F90028FAD1F6
:100EF000084A52F82410084A52F8240001F03FF939
:100F00000021034801F08CF906F072FC10BD0000CE
:100F1000003001401C0100200C01002010B586B0FB
:100F200004460D4850F82400009001200190002054
:100F30000390049003200290084951F82400694668
:100F400001F073F8204603F073FE054951F82400C0
:100F500001F0A4F906B010BDF4010020D401002076
:100F60005401002010B50446024801692046884714
:100F700010BD0000F8C80308FEB504460D46002069
:100F800002900121CDE90010034802AB1822294646
:100F900086682046B047FEBD74CA030810B50446F3
:100FA000024841692046884710BD000044C9030833
:100FB000FEB504460D46002002900121CDE9001047
:100FC000034802AB1922294686682046B047FEBD79
:100FD00074CA030810B5044605F046FE20211248E5
:100FE00001F01EF9114A52F82410114A52F8240057
:100FF00001F0BAF8B8210C4801F025F900BF0A4801
:1010000001F0F7F80028FAD1084A52F82410084AEB
:1010100052F8240001F0B3F80021034801F000F970
:1010200006F0E6FB10BD0000003001401C0100206E
:101030000C01002010B586B004460E4850F824007C
:101040000090022001900020039004900320029061
:1010500002200590084951F82400694600F0E5FF98
:10106000204603F005FE054951F8240001F016F969
:1010700006B010BDF4010020D4010020540100206E
:1010800010B504460248C1682046884710BD0000DC
:10109000F8C80308FEB504460D4601200290002062
:1010A0000121CDE90010044802AB182229468668C8
:1010B0002046B047FEBD000074CA030810B50446C0
:1010C0000549085D05498A6832219047034801694E
:1010D0002046884710BD0000300B002044C903089B
:1010E000FEB504460D460120029000200121CDE905
:1010F0000010044802AB1922294686682046B047F2
:10110000FEBD000074CA030870B504460D46A06910
:10111000401C2169884201D1012070BD29466269C5
:10112000E068FFF7E0F804F10C006369D4E900120D
:1011300000F016F8A069401CA0610020EDE7014610
:10114000886908B1012070470020FCE701468869E2
:10115000401C0A69904201D0012070470020FCE742
:1011600010B50468944203D204681C44046000E093
:10117000016010BD70B504460D46A06908B9012094
:1011800070BD28466269A168FFF7ADF804F1080058
:101190006369D4E90012FFF7E3FFA069401EA06174
:1011A0000020EDE710B50160541E04FB03144460F9
:1011B0008160C160026143610024846110BD704799
:1011C000F0B595B005460E46144624210CA8FFF74D
:1011D000A3F8242218490CA8FFF785F824220CA9AB
:1011E00003A8FFF780F80020029003A8009013489E
:1011F00002232422314647682846B84707E04FF0CB
:1012000080500F490860BFF34F8FBFF36F8F9DF879
:101210000C000028F3D002A904A8FFF7DBFC4FF470
:1012200096710298484340F2FF31B0FBF1F0208004
:101230009DF80D0015B0F0BD48CA030874CA030834
:1012400004ED00E0F0B58BB005460E46144602A84A
:1012500000900D4801231522314647682846B847BB
:1012600007E04FF0805009490860BFF34F8FBFF38C
:101270006F8F9DF808000028F3D09DF80C002070B7
:101280009DF809000BB0F0BD74CA030804ED00E03E
:10129000F0B58BB005460E46144602A800900E48E5
:1012A00008231A46314647682846B84707E04FF0FA
:1012B00080500A490860BFF34F8FBFF36F8F9DF8CE
:1012C00008000028F3D003982060049860609DF81F
:1012D00009000BB0F0BD000074CA030804ED00E083
:1012E000F0B58BB005460E46144602A800900E4895
:1012F00002231222314647682846B84707E04FF0DC
:1013000080500A490860BFF34F8FBFF36F8F9DF87D
:1013100008000028F3D0214603A8FFF758FC9DF8E9
:1013200009000BB0F0BD000074CA030804ED00E032
:1013300030B58FB004460D460C4A117F90690C4AB7
:10134000936801AA9847122201A90DF11A00FEF72D
:10135000CAFF08208DF8180012208DF819000548E2
:10136000016806A888470FB030BD0000C8C7030851
:10137000E4C90308C4C80308F0B58BB005460E469F
:10138000144602A800900E481223042231464768F2
:101390002846B84707E04FF080500A490860BFF37D
:1013A0004F8FBFF36F8F9DF808000028F3D01422F1
:1013B00003A92046FEF797FF9DF809000BB0F0BD8A
:1013C00074CA030804ED00E0F0B58BB005460E4684
:1013D000144602A800900E480223102231464768A6
:1013E0002846B84707E04FF080500A490860BFF32D
:1013F0004F8FBFF36F8F9DF808000028F3D0214670
:1014000003A8FFF7E4FB9DF809000BB0F0BD000056
:1014100074CA030804ED00E0F0B58BB005460E4633
:10142000144602A800900D48012314223146476853
:101430002846B84707E04FF0805009490860BFF3DD
:101440004F8FBFF36F8F9DF808000028F3D09DF8F1
:101450000C0020709DF809000BB0F0BD74CA0308A1
:1014600004ED00E0064991ED000A80ED000A91EDDF
:10147000010A80ED010A91ED020A80ED020A70472F
:101480007C0C00200146034A52F82100C26A104633
:10149000704700004C01002030B589B004460D466D
:1014A0000E208DF8000008480078012800D100E0E7
:1014B00000208DF8020001208DF80100034801682A
:1014C0006846884709B030BDAC000020C4C8030896
:1014D0000146144A881A91421BD009DC124808447C
:1014E00078B1B0F5806F0FD0B0F5006F17D10EE076
:1014F000B0F5404F03D0B0F5444F10D10CE00B488D
:1015000070470A487C30FBE70848F830F8E708489D
:10151000F6E707487C30F3E70548F830F0E70020AD
:10152000EEE700000050004000BCFFBF1417002091
:101530008818002010B504462046FFF7C9FF10BDEB
:10154000F0B58BB005460E46144602A8009015482B
:1015500002232022314647682846B84707E04FF06B
:10156000805011490860BFF34F8FBFF36F8F9DF814
:1015700008000028F3D001A903A8FFF72BFBBDF951
:101580000400B0F5806F05DBBDF90400C0F5806094
:1015900000B20190BDF9040020809DF809000BB055
:1015A000F0BD000074CA030804ED00E0F8B504467D
:1015B0000E4615460020009005F056FB20212C48D1
:1015C00000F02EFE2B4A52F824102B4A52F8240029
:1015D00000F0CAFD06F01F0040F02001244800F092
:1015E00032FE00BF224800F004FE0028FAD103E0DA
:1015F00000BF1F48007B00BF1D4800F004FE00280C
:10160000F6D123E01B4A52F824101B4A52F824005A
:1016100000F0B5FD681EC5B2164A52F82410164AED
:1016200052F8240000F0A0FD0021114800F00BFE4C
:1016300000BF0F4800F0DDFD0028FAD10C4800F093
:10164000ECFDE9008840009908430090002DD9DCAA
:10165000084A52F82410084A52F8240000F08FFD7E
:101660000021034800F0DCFD06F0C2F80098F8BD48
:10167000003001401C0100200C010020F0B58BB0AF
:1016800005460E46144602A800901548022328225B
:10169000314647682846B84707E04FF08050114967
:1016A0000860BFF34F8FBFF36F8F9DF808000028CD
:1016B000F3D001A903A8FFF78DFABDF90400B0F536
:1016C000806F05DBBDF90400C0F5806000B20190B9
:1016D000BDF9040020809DF809000BB0F0BD0000AA
:1016E00074CA030804ED00E0014601EB810000EB41
:1016F0008110024A02EBC0004068704718020020C7
:10170000004870472C0B0020004870474C0B00200D
:1017100000487047540B0020F0B58BB006460F46CA
:1017200014461D4602A8009010480823042239469A
:10173000D0F804C03046E04707E04FF080500C4935
:101740000860BFF34F8FBFF36F8F9DF8080000282C
:10175000F3D0214603A8FFF743FA294604A8FFF770
:101760003FFA9DF809000BB0F0BD000074CA0308F1
:1017700004ED00E010B504460248214642680248E4
:10178000904710BDE8CA03080010014070B58AB048
:1017900006460C46114800680168304688470546F1
:1017A00005F12C00FFF7CBFCB0B101A905F12C002D
:1017B000FFF7E0FC9DF8050020709DF80400801EF6
:1017C00060709DF80400821E0DF10601A01CFEF75A
:1017D0008AFD01200AB070BD0020FBE7500B0020FD
:1017E00030B58DB004460D460F48816801A8884782
:1017F0000DF1120101A804F0C7FB0DF1160102A8BA
:1018000004F0C2FB0DF11A0103A804F0BDFB072090
:101810008DF810000C208DF811000448016804A810
:1018200088470DB030BD00008CC80308C4C8030849
:1018300030B58DB004460D460F48016901A88847B0
:101840000DF1120101A804F09FFB0DF1160102A891
:1018500004F09AFB0DF11A0103A804F095FB052092
:101860008DF810000C208DF811000448016804A8C0
:1018700088470DB030BD00008CC80308C4C80308F9
:101880003EB504460D4A117910680D4A53696A46FF
:1018900098470A4A117B9068094A536901AA9847F8
:1018A000064A117D1069064A536902AA98470548FD
:1018B00021468268684690473EBD0000C8C70308BD
:1018C000A4CA030834C803080146024800EB4110CB
:1018D000007C70478425002038B5044605F0C4F923
:1018E0002021374800F09CFC364A52F82410364A32
:1018F00052F8240000F038FCD021314800F0A3FC5D
:1019000000BF2F4800F075FC0028FAD103E000BFAB
:101910002B48007B00BF2A4800F075FC0028F6D158
:10192000284A52F82410284A52F8240000F027FCD4
:10193000244A52F82410244A52F8240000F014FCDF
:1019400000211F4800F07FFC00BF1D4800F051FC43
:101950000028FAD11A4800F060FC00020090194AF1
:1019600052F82410184A52F8240000F008FC154AD6
:1019700052F82410144A52F8240000F0F5FB00211C
:101980000F4800F060FC00BF0D4800F032FC00285A
:10199000FAD10B4800F041FC009908430090094A35
:1019A00052F82410084A52F8240000F0E8FB002105
:1019B000034800F035FC05F01BFF009838BD00001F
:1019C000003001401C0100200C010020014800688B
:1019D00070470000580B0020014800687047000065
:1019E0005C0B00200148006870470000600B00207D
:1019F0000148006870470000680B0020014800683B
:101A000070470000700B002001480068704700001C
:101A1000740B00200148006870470000880B00200C
:101A200030B589B004460D460F208DF800000848F7
:101A3000C078012800D100E000208DF802000120CC
:101A40008DF80100034801686846884709B030BD39
:101A5000AC000020C4C80308F0B58BB005460E46A4
:101A6000144602A800900E48042314223146476809
:101A70002846B84707E04FF080500A490860BFF396
:101A80004F8FBFF36F8F9DF808000028F3D02146D9
:101A900003A8FFF7A5F89DF809000BB0F0BD000002
:101AA00074CA030804ED00E0F0B58BB005460E469D
:101AB000144602A800900E480423102231464768BD
:101AC0002846B84707E04FF080500A490860BFF346
:101AD0004F8FBFF36F8F9DF808000028F3D0214689
:101AE00003A8FFF77DF89DF809000BB0F0BD0000DA
:101AF00074CA030804ED00E010B5012000F086F977
:101B0000022000F083F9042000F080F9082000F0A2
:101B10007DF9102000F07AF94FF4800000F084F98C
:101B20004FF4800000F088F94FF4800000F06EF967
:101B30004FF4001000F078F94FF4001000F07CF939
:101B40004FF4001000F062F910BD08B501200090BC
:101B500000BF00980028FCD000BF00BF08BD0000F7
:101B600010B50446084951F8240001F03FFA0A2054
:101B700004F0C2FF044951F8240001F07FFA0A2062
:101B800004F0BAFF10BD0000FC00002070B5012574
:101B9000002425E004EB44001C4951F82000E8B182
:101BA00004EB440051F82000401E04EB4401174AA6
:101BB00042F8210004EB4400114651F8200060B9BE
:101BC00004EB44020B4603EB8202906804EB4402F0
:101BD00003EB82025168884700E00025601CC4B214
:101BE000062CD7DB8DB100BF0948006820F001004A
:101BF0000749086000BF00BF0846C06820F0010028
:101C0000C86000BF00200349087070BDFC190020A7
:101C100000200040180B002010B5114A11791068FF
:101C2000104A9369002298470D4A117B90680D4A2B
:101C30009369002298470A4A117D1069094A9369FD
:101C4000002298479FED080A084880ED000A9FEDA2
:101C5000060A80ED010A9FED040A80ED020A10BD1C
:101C6000C8C70308A4CA0308000000007C0C0020B9
:101C700010B50446024951F82400804710BD000009
:101C8000B80A00202DE9F04105462C686E6813491A
:101C9000A8680860A068602802D3E068502801D2D4
:101CA000BDE8F081206800F130073021A068B0FB6A
:101CB000F1F0A0F1010830234246394604F110004A
:101CC000FFF770FA0020A064054870600548B06016
:101CD000054830600120F06000BFE1E7280B0020DC
:101CE0007D570008F52D0008392F00082DE9F04731
:101CF00005462C686E681D49A8680860A0682228FF
:101D000002D3E068222801D2BDE8F087206800F104
:101D10001107606800F111081121A068B0FBF1F013
:101D2000A0F10109E068B0FBF1F0A0F1010A112374
:101D30004A46394604F11000FFF734FA112352469F
:101D4000414604F12C00FFF72DFA0020A06408485A
:101D500070600848B060084830600020F0600348B8
:101D60000068C1682046884700BFCDE7440B0020CB
:101D7000D9570008B52E0008852F00082DE9F04737
:101D800005462C686E681E49A8680860A068482847
:101D900002D3E068482801D2BDE8F087206800F14E
:101DA0002507606800F12508A06825382321B0FBCD
:101DB000F1F9E0682538B0FBF1FA23234A463946A9
:101DC00004F11000FFF7EEF923235246414604F1D7
:101DD0002C00FFF7E7F90020A0640A4870600A4869
:101DE000B06000203060F060552225216068FEF769
:101DF0008CFA03480068C1682046884700BFCBE7DB
:101E0000500B002005580008ED2E000808B50549C4
:101E100009680143034A11601146096801400091B5
:101E200000BF08BD30380240024909680143014A39
:101E30001160704710380240024909688143014A25
:101E4000116070471038024008B505490968014320
:101E5000034A1160114609680140009100BF08BDA6
:101E600040380240024909680143014A1160704745
:101E700020380240024909688143014A11607047D5
:101E80002038024008B5054909680143034A11603A
:101E9000114609680140009100BF08BD4438024066
:101EA000024909680143014A116070472438024021
:101EB000024909688143014A116070472438024091
:101EC00070B505460C46034850F82410284688474C
:101ED00070BD0000DC0A00202021816070474FF4B3
:101EE0000061816070474FF40011816070474FF0CE
:101EF0000061816070472021C16070474FF400612C
:101F0000C16070474FF40011C16070474FF000612D
:101F1000C160704770B504460D461646F06A00B1C0
:101F200000BFD6E9021211433269114372691143AD
:101F3000B2691143F2691143B26A41EA02002949C8
:101F4000495D6158284A11400143264A525DA1501B
:101F500000BFF06A30B3D6E90B01224A525D224439
:101F6000526922F0070240EA01031A431D4B5B5DF0
:101F700023445A6100BF706B1A49495D615821F0D2
:101F8000C0710143174A525DA15000BFB06B1549A3
:101F9000495D615821F4C0010143124A525DA150CC
:101FA00000BF00BF70680F49495D2144C86000BF91
:101FB00030680C49495D2144886000BF306A094996
:101FC000495D214449686FF30F010143054A525DA1
:101FD0002244516000BF29462046726A00F006F88C
:101FE000002070BDF47800081F80FCFF10B5054B81
:101FF0005B5CC35823F060631343024C645C035181
:1020000010BD0000F478000800210160416081608B
:10201000C160016141618161C161016241628162AE
:10202000C1620163416381637047F0B502460B46AC
:1020300000240021186890FAA0F0B0FA80F48AE039
:102040000125A540186800EA050100297DD05868DF
:10205000012802D0586802281CD19868956891FA26
:10206000A1F6B6FA86F677000326BE40B54391FA8C
:10207000A1F6B6FA86F6760000FA06F635439560C4
:1020800000BFD86855688D4301FB00F635435560A5
:1020900000BF00BF1869D56891FAA1F6B6FA86F6B6
:1020A00077000326BE40B54391FAA1F6B6FA86F64C
:1020B000760000FA06F63543D56000BF586802285E
:1020C00031D191FAA1F0B0FA80F0082814D2586901
:1020D000156A91FAA1F6B6FA86F6B7000F26BE4049
:1020E000B54391FAA1F6B6FA86F6B60000FA06F6FE
:1020F0003543156200BF16E05869556A0E0A96FA14
:10210000A6F6B6FA86F6B7000F26BE40B5430E0A0D
:1021100096FAA6F6B6FA86F6B60000FA06F6354343
:10212000556200BF00BF5868156891FAA1F6B6FA6B
:1021300086F677000326BE40B54391FAA1F6B6FABB
:1021400086F6760000FA06F600E003E035431560F7
:1021500000BF00BF641C1868E04000287FF470AF27
:10216000F0BD0A04826170470A04826170470A0464
:10217000826170470A0482617047816170478161A2
:1021800070478161704730B50246012300BF106877
:10219000C0F3801038BBD1E9000420438C68204391
:1021A000CC6820430C6920434C6920438C69204350
:1021B000CC6920430C6A204314684FF6BF75AC43CA
:1021C00020431060506820F004004C6940EA14403D
:1021D0005060086AB0F5005F04D1486A84B21461A7
:1021E00000BF00BF0023D06920F40060D061184612
:1021F00030BD01468868C0F3C0107047014688684A
:10220000C0F3C01070470146886800F001007047B5
:1022100001468868C0F3400070470146087B70475C
:10222000026822F038020A43026070470021016010
:1022300041608160C160016141618161C161016290
:102240000721416270470173704701737047026A4A
:102250008A4302627047416841F001014160704762
:10226000016841F0800101607047416C41F4004118
:1022700041647047016841F00101016070474169A4
:1022800041F0200141617047416941F02001416105
:102290007047416941F0010141617047416941F076
:1022A0000101416170470000F0B51346012901D1D9
:1022B000002516E0042901D1012512E0102901D1E1
:1022C00002250EE0402901D103250AE0B1F5807F07
:1022D00001D1042505E0B1F5806F01D1052500E0AD
:1022E00006252A46134DAE5C00F1180574192568C1
:1022F000114EB75C0326BE40B5432560056A0F4EFC
:10230000B75C0226BE40B54303F002060B4FBF5C2C
:10231000BE40354305624568094EB75C4FF4807690
:10232000BE40B54303F48076054FBF5CBE403543E5
:102330004560F0BDD4C80308DBC80308E9C803083A
:10234000F0C8030870B50246012901D1002416E047
:10235000042901D1012412E0102901D102240EE048
:10236000402901D103240AE0B1F5807F01D1042482
:1023700005E0B1F5806F01D1052400E00624234675
:10238000064CE55C02F1180428190468044DEE5C63
:102390000425B5402C43046070BD0000D4C8030878
:1023A000DBC8030870B50246012901D1002416E0FC
:1023B000042901D1012412E0102901D102240EE0E8
:1023C000402901D103240AE0B1F5807F01D1042422
:1023D00005E0B1F5806F01D1052400E00624234615
:1023E000064CE55C02F1180428190468044DEE5C03
:1023F0000825B5402C43046070BD0000D4C8030814
:10240000DBC80308C1637047F0B5034614460129D1
:1024100001D1002516E0042901D1012512E010297F
:1024200001D102250EE0402901D103250AE0B1F5D2
:10243000807F01D1042505E0B1F5806F01D105252C
:1024400000E006252846094D2E5C03F11805721997
:102450001568074E375C7326BE40B543044E365CA4
:1024600004FA06F635431560F0BD0000D4C8030831
:10247000DBC80308F0B503461446012901D1002545
:1024800016E0042901D1012512E0102901D102250D
:102490000EE0402901D103250AE0B1F5807F01D18A
:1024A000042505E0B1F5806F01D1052500E0062582
:1024B0002846094D2E5C03F1180572191568074E60
:1024C000375C7326BE40B543044E365C04FA06F60C
:1024D00035431560F0BD00005CC9030863C90308FB
:1024E000C1627047026822F440720A43026070477A
:1024F000826844F207039A430A438260704741624C
:102500007047026822F070020A43026070478162DD
:10251000704708B50168009100BF4168009100BF95
:1025200008BD6FF0400101607047016921F49041DE
:102530000161416921F02A0141617047016921F47B
:1025400090410161416921F022014161416941F0FD
:10255000080141617047C16841F40051C160704792
:1025600000BF00BF00F1140252E8002F42F040010A
:1025700000F1140242E80013002BF3D100BF7047B2
:1025800000BF00BF00F1140252E8002F42F08001AA
:1025900000F1140242E80013002BF3D100BF704792
:1025A0002DE9FC5F06460C4691461D46B9F5004FE5
:1025B00068D10220A0FB057003461920A4FB00A0EF
:1025C00001463A465046FDF75DFE6421B0FBF1F04E
:1025D0004FEA001A0220A0FB05710B461920A4FB4C
:1025E00000B13A465846FDF74DFE83460220A0FB57
:1025F000057003461920A4FB00013A46CDE900010D
:10260000FDF740FE6421B0FBF1F000EBC00101EBEF
:102610000010ABEB8000322101EBC0006421B0FB65
:10262000F1F000F0F8000AEB400A0220A0FB057070
:1026300003461920A4FB00B13A465846FDF722FE96
:1026400083460220A0FB057003461920A4FB00016D
:102650003A46CDE90001FDF715FE6421B0FBF1F02B
:1026600000EBC00101EB0010ABEB8000322101EB6D
:10267000C0006421B0FBF1F000F00700504480B2CC
:10268000B06067E00420A0FB057003461920A4FB9E
:1026900000A001463A465046FDF7F4FD824604206C
:1026A000A0FB05711920A4FB00B084463A460B46F6
:1026B00058466146FDF7E6FD6421B0FBF1F000EB02
:1026C000C00101EB0010AAEB8000322101EB0010E9
:1026D0006421B0FBF1F000F0F00A0420A0FB0570CB
:1026E00003461920A4FB00B001463A465846FDF7C0
:1026F000C9FD6421B0FBF1F00AEB001A0420A0FB35
:10270000057003461920A4FB00B13A465846FDF770
:10271000B9FD83460420A0FB057003461920A4FBE5
:1027200000013A46CDE90001FDF7ACFD6421B0FBA4
:10273000F1F000EBC00101EB0010ABEB80003221A7
:1027400001EB00106421B0FBF1F000F00F005044E9
:1027500080B2B060BDE8FC9FC26822F480520A4398
:10276000C2607047C26822F400420A43C2607047E8
:10277000C26822F4C0620A43C2607047026922F450
:1027800040520A430261704710B500BF00BF00F11C
:102790000C0353E8003F23F00C0343EA010200F16D
:1027A0000C0343E80024002CF1D100BF10BD000051
:1027B00000B597B01C4B032211461C4803F0C0FC27
:1027C0001B4B032211461B4803F0BAFC9FED1A0A6B
:1027D0001A4880ED000A9FED1A0A1A4880ED000A97
:1027E000242219490EA8FDF77EFD0EAB03221146E7
:1027F0000CA803F0A5FC0D4A0CA9104603F0A4FC9C
:1028000024221149243103A8FDF76DFD03AB0322F7
:10281000114601A803F094FC064A114601A803F0F2
:1028200093FC17B000BD00004C0000209400002075
:10283000700000209C0000200FE4D04BA40000207A
:10284000FC0F1336A800002044C8030810B5094B3C
:1028500019791868084B1A6A9047064B197B9868D3
:10286000054B1A6A9047034B197D1869024B1A6A87
:10287000904710BDC8C70308A4CA030810B50B4A87
:10288000117910680A4A136900229847074A117B98
:102890009068074A136900229847044A117D10691D
:1028A000034A13690022984710BD0000C8C70308F7
:1028B000A4CA030800BFFEE700BFFEE730B589B039
:1028C00004460D464FF480400A4A516920EA01024D
:1028D00001EA000342EA0342064B9A6100BF00206E
:1028E0008DF800008DF801000348016868468847AC
:1028F00009B030BD000C0240C4C8030830B589B02F
:1029000004460D460B486A46294603682046984708
:1029100007E04FF0805008490860BFF34F8FBFF3C6
:102920006F8F9DF800000028F3D09DF8010009B0DA
:1029300030BD000074CA030804ED00E030B589B072
:1029400004460D460B486A462946036820469847C8
:1029500007E04FF0805008490860BFF34F8FBFF386
:102960006F8F9DF800000028F3D09DF8010009B09A
:1029700030BD000074CA030804ED00E030B589B032
:1029800004460D460B486A46294603682046984788
:1029900007E04FF0805008490860BFF34F8FBFF346
:1029A0006F8F9DF800000028F3D09DF8010009B05A
:1029B00030BD000074CA030804ED00E0F0B58DB02E
:1029C00006460D461446124800680168304688479E
:1029D0000746FF208DF804008DF805008DF806509D
:1029E00002208DF8070001208DF8080001A8FEF7ED
:1029F000FAF88DF809000B9401208DF830000020C2
:102A0000207001A9384602F01FFE0DB0F0BD000095
:102A1000280B002070B500200446F8E07E4A02EB47
:102A2000441211687C4A02EB441250680A69024061
:102A3000824201D1012200E00022774800EB4410DD
:102A4000007A82EA0005744800EB4410806945EA88
:102A50004000714901EB441188616F4800EB44105C
:102A6000007C012802D002283CD11DE06A4800EB1E
:102A70004410007EB8B90220674901EB4411087484
:102A80000120654901EB44114861634800EB4410A3
:102A9000C06840B1604800EB4410022300220121CD
:102AA000C6682046B04751E05B4800EB4410007E0A
:102AB000FF2816D10120584901EB441108745649EA
:102AC00001EB44114861544800EB4410C06840B128
:102AD000514800EB4410012300221946C6682046E5
:102AE000B04733E04C4800EB4410007E98B9022018
:102AF000494901EB44110874474800EB4410C06891
:102B000040B1454800EB4410022300221146C6683C
:102B10002046B0471AE0404800EB4410007EFF28F2
:102B200013D101203C4901EB441108743A4800EBF1
:102B30004410C06840B1384800EB44100123002223
:102B40001146C6682046B04700E000BF00BF3248CB
:102B500000EB4410406900B956E02F4800EB4410E8
:102B6000007C012802D0022846D125E02A4800EB4B
:102B70004410C069B0F5FA7F0DD1274800EB44102E
:102B8000C06840B1244800EB4410012302221146E2
:102B9000C6682046B047204800EB4410C069B0F535
:102BA000FA7F08D81C4800EB4410C069401C1A4941
:102BB00001EB4411C86125E0174800EB4410C069DF
:102BC000A0B1154800EB4410C069B0F5FA7F0DD8EC
:102BD000114800EB4410C06840B10F4800EB4410AE
:102BE000022301221946C6682046B04700200A4940
:102BF00001EB4411C86105E00020074901EB4411D5
:102C0000C86100BF00BF00BF601CC0B20446042CF6
:102C1000FFF604AF70BD000084250020F0B585B03C
:102C200007460E4614461F48006801683846884724
:102C300005465CB100201C4908704FF47A7004FB13
:102C400000F11848006842692846904728E005F1DD
:102C50002C00FEF774FAA0B1694605F12C00FEF7CE
:102C600089FA24B10F4800688169284688479DF891
:102C7000102069463046FDF736FB9DF8100005B080
:102C8000F0BD14B10848007800B90CB90020F6E78F
:102C90004FF0805005490860BFF34F8FBFF36F8F2F
:102CA000D5E70000440B0020480B002004ED00E0B5
:102CB0002DE9F0438DB080460C4615461E46149F04
:102CC000144800680168404688478146FF208DF817
:102CD00004008DF805008DF8064004208DF80700EB
:102CE00002208DF808008DF809508DF80A6001A8BF
:102CF000FDF779FF8DF80B000B9701208DF8300060
:102D00000020387001A9484602F09EFC0DB0BDE8D5
:102D1000F0830000280B0020704730B5DDE9034543
:102D200030BD70B50446254695F8780000F002F8ED
:102D300070BD0000002100EB4002024B43F822105E
:102D400070470000FC19002010B50446206890F878
:102D50002D00401E216881F82D002068C078011DDB
:102D60000248006842682046904710BD280B0020AA
:102D700000B587B04FF40040019000200290012080
:102D80000490022005900320039001A91748FFF743
:102D90004CF9402001900020029001200490022074
:102DA00005900320039001A91148FFF73EF9202068
:102DB0000190002002900120049002200590032041
:102DC000039001A90A48FFF730F904200190002080
:102DD000029001200490022005900320039001A995
:102DE0000348FFF722F907B000BD000000080240C9
:102DF000001002402DE9F047074688467E6808F03B
:102E0000FF094946304603F075F808B1BDE8F08780
:102E10002748006881693846884725480068016965
:102E2000384688477D683C6815F8260F401E287094
:102E30006878317901F05801084368706878263D58
:102E400050B194F82D0038B195F8260000B1DDE7B7
:102E50003846FFF779FFD9E7A06A80B10020A16A60
:102E600048703079A16A8870F078801EA16AC870B5
:102E7000F1788A1EA16A081D711DFDF734FA95F8D4
:102E8000260050B1A06A10B1A06A2430A0620848A0
:102E90000068C16838468847B8E7A06A10B10120C9
:102EA000A16A08703846FDF7CAFE00BFAEE7000011
:102EB000280B002070B504460D460B4800680169D8
:102EC0002046884704F12C00FEF740F930B16168D4
:102ED0000D7404F12C006168FEF716F902480068D1
:102EE000C1682046884770BD440B002070B5044679
:102EF0000D46104800680169204688476668E9B2B7
:102F0000304603F01CF848B904F12C00FEF71EF916
:102F100020B1B11C04F12C00FEF7F6F85522252152
:102F20006068FDF7F2F903480068C16820468847E9
:102F300070BD0000500B002070B5054610480068B9
:102F40000169284688472C6894F82D0018B1284656
:102F5000FFF7FAFE70BDA06A60B100BF012054F80F
:102F6000281F4870216808702179481E2071283C6C
:102F70000029F3D12846FDF762FE00BFEAE7000012
:102F8000280B00200121014A11707047480B0020D6
:102F900000B58BB04FF48050FEF782FF4FF48050A5
:102FA000FEF786FF4FF48050FEF76CFF01A8FFF795
:102FB0003DF901200590022004904FF482700290A8
:102FC0004FF4007006900020079001A90648FFF713
:102FD000DAF800BF0448006840F040000249086089
:102FE00000BF0BB000BD00000030014070B50446CA
:102FF0001F480068A0431E49086003F035FE1021F9
:103000001C48FFF7B4F81A4801781B48FFF71DF970
:1030100017480088C0F3072500BF1748FFF7F8F8E6
:103020000028FAD029461448FFF70FF91048006825
:10303000C0F3074500BF1048FFF7EAF80028FAD0B0
:1030400029460D48FFF701F900BF0B48FFF7E0F8EC
:103050000028FAD000BF0848FFF7D0F80028FAD1BE
:1030600010210448FFF78DF804F0C2FB70BD00008A
:1030700014020020000002400030014070B50446F8
:103080001F48006820431E49086003F0EDFD102131
:103090001C48FFF76CF81A4801781B48FFF7D5F871
:1030A00017480088C0F3072500BF1748FFF7B0F89E
:1030B0000028FAD029461448FFF7C7F810480068DE
:1030C000C0F3074500BF1048FFF7A2F80028FAD068
:1030D00029460D48FFF7B9F800BF0B48FFF798F8ED
:1030E0000028FAD000BF0848FFF788F80028FAD176
:1030F00010210448FFF745F804F07AFB70BD00008A
:1031000014020020000002400030014010B54FF4CE
:103110008040FEF7B7FE4FF08050FEF795FE10BDE1
:1031200010B504460248214602680248904710BD87
:10313000E8CA03080010014030B589B005460C46C6
:1031400020788DF801006078801CC0B28DF80000F6
:103150006278A11C0DF10200FDF7C5F86846FDF785
:1031600059FD62780DF1020188546946284602F043
:1031700095FA09B030BD0000FEB505460E4614466E
:10318000C4EB84204FF49671B0FBF1F080B2029052
:1031900000200221CDE90010034802AB1E22314677
:1031A00087682846B847FEBD74CA0308FFB58BB0D0
:1031B00004460D46164602A80221CDE900100C482F
:1031C0000EAB3246294687682046B84707E04FF0E5
:1031D000805008490860BFF34F8FBFF36F8F9DF891
:1031E00008000028F3D09DF809000FB0F0BD0000E2
:1031F00074CA030804ED00E090ED000A054981ED72
:10320000000A90ED010A81ED010A90ED020A81EDBC
:10321000020A70477C0C002070B505460C4604F08D
:103220007F0201230921284600F0B0F870BD00009C
:1032300070B52DED028B0546B0EE408A9FED0F0A6A
:10324000B4EEC08AF1EE10FA0DDB9FED0C0A38EEF9
:10325000400ADFED0A0A80EE201ABCEEC10A10EE29
:10326000100AC4B200E0002404F07F020123092107
:10327000284600F08BF8BDEC028B70BD0000FA41CF
:1032800070B504460D4645B1084A52F82410084A64
:1032900052F82400FEF773FF07E0044A52F82410A6
:1032A000034A52F82400FEF75FFF70BD3C01002086
:1032B0002C01002070B5094B53F82020936A1C465E
:1032C000064D55F82020651C054EB6FBF5F5B5FBFF
:1032D000F1F56B1ED36200BF70BD00004C010020F1
:1032E00000BD0105FEB504460D4607A0006802902A
:1032F00000200421CDE90010044802AB0622294633
:1033000086682046B047FEBD0000FF0374CA03086C
:1033100077B583B004460D46BDF91400002805DAE0
:10332000BDF91400C0F5806000B2059000200221B4
:10333000CDE90010044805AB2022294686682046C6
:10334000B04706B070BD000074CA030870B50546EA
:103350000C46642C00D970BD074951F82500C16A9C
:10336000491C61436420B1FBF0F63146284601F068
:1033700099FC00BFEFE700005401002070B504463F
:103380000D462946204601F08DFC70BD2DE9F04127
:1033900004460E4617461D4603F066FC20212448CD
:1033A000FEF73EFF234A52F82410234A52F8240025
:1033B000FEF7DAFE06F01F011D48FEF744FF00BFCE
:1033C0001B48FEF716FF0028FAD11EE0194A52F8F2
:1033D0002410194A52F82400FEF7D1FE681EC5B227
:1033E000144A52F82410144A52F82400FEF7BCFE86
:1033F000E80027FA00F0C1B20D48FEF724FF00BF35
:103400000B48FEF7F6FE0028FAD1002DDEDC094A53
:1034100052F82410084A52F82400FEF7B0FE0021AA
:103420000348FEF7FDFE04F0E3F9BDE8F08100007B
:10343000003001401C0100200C0100207FB584B049
:1034400004460D4602A906A802F0A1FD03A907A89B
:1034500002F09DFD00200821CDE90010044802ABD8
:103460000422294686682046B04708B070BD000097
:1034700074CA030830B58DB004460D4601A9204634
:10348000FDF7ABFB02A9201DFDF7A7FB03A904F183
:103490000800FDF7A2FB0848416801A888470620FC
:1034A0008DF8100000208DF811000448016804A870
:1034B00088470DB030BD00008CC80308C4C803089D
:1034C00030B58DB004460D4601A92046FDF785FBB9
:1034D00002A9201DFDF781FB03A904F10800FDF7F7
:1034E0007CFB0848C16801A8884704208DF81000BB
:1034F00000208DF811000448016804A888470DB029
:1035000030BD00008CC80308C4C8030870B5044669
:103510000E46254695F8780023463146EA6C00F0C1
:103520005BF870BD2DE9F05F05460C4616461F4658
:10353000DDF82880301B00FB08F0B0FBF7F000EB53
:1035400004090A4A505D0A4A1168884782460AF10E
:10355000010009FB00F044F62061B0FBF1FB0448D8
:103560005946426828469047BDE8F09F300B00203E
:1035700044C903083EB504460D48694642682046E2
:1035800090470C4D2979009A28680B4D2B69984774
:10359000084D297B019AA868074D2B699847054D6E
:1035A000297D029A2869044D2B6998473EBD000089
:1035B00034C80308C8C70308A4CA030870B5054681
:1035C0000C4604F0070040F088020123162128462B
:1035D000FFF7DCFE70BD000070B56424B1FBF4F4AD
:1035E00000EB4005124E46F8254000EB40043546FE
:1035F00005EB8404626000EB400405EB8404A360E7
:103600000C4C247894B901240A4D2C7000BF0A4C4C
:10361000246844F00104084D2C6000BF00BF2C4614
:10362000E46844F00104EC6000BF00BF70BD00001E
:10363000FC190020180B00200020004077B583B053
:1036400004460D4602A905A802F0A1FC00200421B1
:10365000CDE90010044802AB1422294686682046B2
:10366000B04706B070BD000074CA0308FEB504463A
:103670000D46002002900421CDE90010034802AB62
:103680000622294686682046B047FEBD74CA030854
:1036900010B50446204600F0DBFC002004EB84015A
:1036A00001EB8411054A02EBC101486004EB84017F
:1036B00001EB841102EBC101886010BD18020020EB
:1036C00070B58AB004460E466946601CFDF77CFA68
:1036D00022780A4B197F9869094B5D6ABDF8003062
:1036E000A84709208DF8040000208DF80500054842
:1036F000016801A888470AB070BD0000C8C7030868
:10370000E4C90308C4C803083C2900DD704700BFB2
:10371000FCE7000077B583B004460D460020012188
:10372000CDE90010044805AB0A46294686682046C4
:10373000B04706B070BD000074CA030877B583B007
:1037400004460D4600200121CDE90010044805ABD8
:103750000322294686682046B04706B070BD0000A7
:1037600074CA030877B583B004460D4600200121D2
:10377000CDE90010044805AB0A4629468668204674
:10378000B04706B070BD000074CA03082DE9F041CF
:1037900006460F463C2F01DDBDE8F08107EB4700F0
:1037A000C400002512E000200DE0317880220241A3
:1037B000114009B18E2100E04421294A22F8151058
:1037C0006D1C411CC8B20828EFDB761CA542EAD16B
:1037D00024480121224A244B5B5C0344DA6000BF89
:1037E00000BF214A525C024452686FF30F02224329
:1037F0001D4B5B5C03445A6000BF00BFC0141949F5
:10380000886000BF08460121174A525C825842F086
:103810000102154B5B5CC25000BF00BF124A525CF4
:10382000825842F01002104B5B5CC25000BF03F0A4
:103830001BFA4FF480700D49096A01430B4A11626B
:1038400000BF1046FEF720FD00BF0848006840F0AA
:1038500001000649086000BF03F0CAFF00BF9BE7F4
:10386000441A002000640240A8C903080004014073
:1038700077B583B004460D4602A905A802F087FB80
:1038800000200421CDE90010044802AB1022294693
:1038900086682046B04706B070BD000074CA0308B1
:1038A00030B587B005460C462B460122032105A8FA
:1038B00002F046FC6B460122032103A802F040FC03
:1038C00003AA05A9114802F03FFC9DED000A10482B
:1038D000D0ED000A20EE200ABDEEC00A84ED000AF9
:1038E0009DED010AD0ED000A20EE200ABDEEC00ACF
:1038F00084ED010A9DED020AD0ED000A20EE200AB7
:10390000BDEEC00A84ED020A07B030BD940000206D
:10391000A40000202DE9F04104460D4616461F463E
:1039200029462046FEF7CCFA00BF0F48405D2044F0
:10393000C66000BF00BF0C48405D204440686FF384
:103940000F0038430849495D2144486000BF00BF6B
:103950000548405D205840F001000349495D605032
:1039600000BFBDE8F08100009CC90308F8B505461A
:103970002C4672B6A06D18B1D4E91C01FEF7FAFB13
:10398000E06D00BF00BF00BF00F10C0252E8002F45
:1039900042F0040100F10C0242E80013002BF3D1C5
:1039A00000BF00BFE06D0168009100BF4168009159
:1039B00000BF00BFE06D6FF02001016000BFE06D4F
:1039C000FEF7A7FDE3686268E16E606EFFF7A2FF95
:1039D000E06D00BF00BF00BF00F10C0252E8002FF5
:1039E00042F0100100F10C0242E80013002BF3D169
:1039F00000BF00BF62B6F8BD70B505460E462C4646
:103A000072B6A06D20B1D4E91C01816100BF00BF76
:103A1000E06D00BF00BF00BF00F10C0252E8002FB4
:103A200042F0080100F10C0242E80013002BF3D130
:103A300000BF00BFE06DFEF774FD33462268A16E43
:103A4000206EFFF767FF00BFE06D0168C1F3C01192
:103A50000029F9D1E06D00BF00BF00BF00F10C02EA
:103A600052E8002F42F0400100F10C0242E800133E
:103A7000002BF3D100BF00BF62B670BD2DE9F05F2F
:103A800004460E4617461D46DDF8289004EB8400D8
:103A900000EB8410FE4901EBC0004068B04201D148
:103AA000BDE8F09FAF4200D2FAE7202F00D92027CF
:103AB000B9F10A0F00D22F46204600F0C9FA04EBF4
:103AC000840000EB8410F24901EBC0008660002006
:103AD00004EB840101EB8411ED4A02EBC101C860E3
:103AE00004EB840101EB841102EBC101086104EBDA
:103AF000840101EB841102EBC101486104EB8400F5
:103B000000EB8410114601EBC0004068B04208DAB7
:103B100004EB840000EB841001EBC0004068301A15
:103B200008E004EB840000EB8410D94901EBC000ED
:103B30004068801B824600BFD648806A401CD64938
:103B40000968B1FBF0F1D348C06A401CB1FBF0FB3F
:103B50000BFB09F04FF47A71B0FBF1F826E1BD429E
:103B60000CD10021CD4A1160691E04EB840202EBE6
:103B70008412C74B03EBC202516118E100EE105AE8
:103B8000B8EE400AB7EE001AC1EE000A00EE107A55
:103B9000B8EE400AB7EE001AC1EE001A70EEE10A64
:103BA00000EE108AB8EE400A80EE801ABC4981ED22
:103BB000001A00EE105AB8EE400AB7EE001AC1EE35
:103BC000000A691C00EE101AB8EE400AB7EE001A9F
:103BD000C1EE001A30EEE10ADFEDB20A20EE200A53
:103BE000B14981ED000A91ED000AF0EE000A20EEE5
:103BF000200AAB49D1ED000A80EE201ABCEEC10AC2
:103C0000AA4981ED000A04EB840101EB8411A04A6A
:103C100002EBC101C1F82851A4490968CA0804EBA4
:103C2000840101EB84119A4B03EBC101C1F82C21F3
:103C300004EB840101EB84111A4602EBC101C1F8C7
:103C400020519A490968CA0804EB840101EB8411E8
:103C500003EBC101C1F8242194490968B1FBF5F1D6
:103C6000C908934A116001218C4A11602846411C01
:103C700090E001EE100AB8EE411AB7EE002AC2EE4B
:103C8000011A01EE101AB8EE411AB7EE002AC2EE80
:103C9000012A31EEE21AF0EE410A834A92ED001A4F
:103CA00030EEC11AB0EE410AB5EEC00AF1EE10FADC
:103CB00000D86EE07D4A92ED001AB8EE411A21EE6E
:103CC000001A794AD2ED001A81EE212ABCEEC21AFE
:103CD000764A82ED001A126802B95AE00846724A22
:103CE00082ED000A04EB840202EB8412684B03EBC2
:103CF000C2022832694B1B68203342F833106B4AEA
:103D0000D2F800C004EB840202EB8412604B03EB98
:103D1000C2022832614B1B68203302EBC302C2F897
:103D200004C004EB840202EB8412594B03EBC20281
:103D300028325A4B1B68C3F11F0342F833105B4A09
:103D4000136804EB840202EB8412DFF844C10CEB2D
:103D5000C2022832DFF844C1DCF800C0CCF11F0CED
:103D600002EBCC0253604D4A1268521C4B4B1A6056
:103D70004E4A1268B2FBF1F24D4B1B681A444C4B91
:103D80001A601A461268BAEB420F01D26D1C05E0A8
:103D900000BF491C7A1C9142FFF46BAF00BF44493D
:103DA0000968BAEB410F00D301E000BFD7E600BFBE
:103DB0003A480068C0F1200004EB840101EB841153
:103DC000334A02EBC101C861202004EB840101EBFE
:103DD000841102EBC1010862304800681F3004EB17
:103DE000840101EB841102EBC101486204EB840001
:103DF00000EB8410114601EBC0004068B0420FDABE
:103E00002B480068301A04EB840101EB841102EBAB
:103E1000C101886127480121026A204690470FE0CE
:103E200023480068304404EB840101EB8411184AF4
:103E300002EBC10188611F480021026A20469047B9
:103E400000BF1448006A04EB840101EB8411104A9E
:103E500052F8311008430F49086200BF04EB840098
:103E600000EB841052F8301040220A48FEF702FBA3
:103E70000848FEF704FA00BF0648C068611C01222A
:103E80008A4010430349C86000BF00BF08E6000035
:103E90001802002000000140B8000020D80A0020CD
:103EA000C80A002014AE473FCC0A0020D00A0020E8
:103EB000D40A0020F8C8030870B51748416A0020EA
:103EC000884703241448012322461721056800204F
:103ED000A84747F6034410480223224618210568E4
:103EE0000020A8471F240C48012322461021056802
:103EF0000020A84708480021426908469047064824
:103F00009FED060AC1690020884703480121026A23
:103F10000020904770BD0000F8C803080080894465
:103F200070B51348416A012088478724104801234F
:103F30002246172105681846A84742F683040C4814
:103F400002232246182105680120A84708480021BD
:103F500042690120904706489FED060AC169012089
:103F6000884703480121026A0846904770BD000057
:103F7000F8C803080080BB4470B51348416A0220AA
:103F8000884787241048012322461721056802200C
:103F9000A84742F683040C480223224618210568EC
:103FA0001846A84708480021426902209047064861
:103FB0009FED060AC1690220884703480121026A71
:103FC0000220904770BD0000F8C8030800808944B3
:103FD00070B51348416A032088478724104801239D
:103FE0002246172105680320A84742F683040C489F
:103FF00002232246182105680320A847084800210B
:1040000042690320904706489FED060AC1690320D4
:10401000884703480121026A0320904770BD0000D1
:10402000F8C803080080894470B505460C4600BFF7
:104030000648005D285820F001000449095D6850D9
:1040400000BF21462846FDF73BFF70BD9CC9030811
:1040500010B5044621460B4800F0FCFD04EB84003B
:1040600000EB8410084A52F8301040220548FEF751
:1040700001FA0448FEF703F92146024800F00AFE5F
:1040800010BD0000000001401802002070B5054678
:104090002C4672B6E06D00BF00BF00BF00F10C02FD
:1040A00052E8002F22F0040100F10C0242E8001354
:1040B000002BF3D100BF00BFE16E606EFFF7B4FFCD
:1040C000E06D00BF00BF00BF00F10C0252E8002FFE
:1040D00022F0100100F10C0242E80013002BF3D192
:1040E00000BF00BF62B670BD70B505462C4672B603
:1040F000E06D00BF00BF00BF00F10C0252E8002FCE
:1041000022F0080100F10C0242E80013002BF3D169
:1041100000BF00BFA06D18B1D4E91C01FEF72AF85A
:10412000A16E206EFFF780FFE06D00BF00BF00BFF3
:1041300000F10C0252E8002F22F0400100F10C02C5
:1041400042E80013002BF3D100BF00BF62B670BD80
:104150002DE9FF4F8DB00F4616469846DDE91AB49B
:10416000DDF870902848006801680D9888470C9029
:10417000FF208DF800008DF80100FE208DF8020070
:10418000601C7043001DC0B28DF8030083208DF8C1
:1041900004008DF805808DF80640601C00F0FF0AD1
:1041A00000BF701EC5B27A5D0AFB05F0801C0DF1E0
:1041B00005010A5404FB05B10AFB05F2D21C0DF1FE
:1041C0000503D0182246FCF78EF8002005EBC50148
:1041D00009F82100301EA6F10101CEB2E1D16846F6
:1041E000FCF701FD9DF80310891E0DF105025054E6
:1041F000CDF8289000208DF82C0069460C9801F02D
:1042000023FA11B0BDE8F08F280B002010B500BFD5
:10421000B02080F31188BFF34F8FBFF36F8F00BFC3
:1042200003F098F918B14FF080500449086000BFBE
:10423000002080F3118800BF10BD000004ED00E0F5
:1042400070B54FF08050FDF7FFFD4FF480404049BE
:10425000096821F4804101433D4A116000BF0520F7
:104260003C49096821F0070101433A4A116000BF47
:1042700000BF3948006840F480303749086000BF0B
:1042800000BF00BF34480068C0F340400028F8D0A9
:104290004FF480000821A822002340EA010444EAE8
:1042A00082142D4D2D1D2D682C4E35402C432A4D4A
:1042B0002D1D2C602C46246824F440341C432C60B3
:1042C00000BF030140EA010444EA82141C432D6844
:1042D000234E35402C43204D2D1D2C6000BF00BFC8
:1042E000281F006840F08070291F086000BF00BFD1
:1042F00000BF19480068C0F340600028F8D00020D3
:1043000015490831096821F0F0010143124A0832C9
:10431000116000BF4FF4A0501146096821F4E0512C
:104320000143116000BF4FF400401146096821F4B9
:1043300060410143116000BF02201146096821F06D
:1043400003010143116000BF00F00CF870BD0000D4
:1043500000700040003C0240003802400080BFFF77
:104360000080BFF070B5002000220223002402214B
:10437000274D2D6805F00C0020B1042806D0082830
:1043800034D107E0234D244E356033E0214D224ED9
:1043900035602FE01E4D2D1F2D68C5F380541C4D38
:1043A0002D1F2D6805F03F0154B11A4DB5FBF1F5F5
:1043B000174E361F3668C6F3881605FB06F209E06D
:1043C000144DB5FBF1F5124E361F3668C6F388164C
:1043D00005FB06F20E4D2D1F2D68C5F301456D1C22
:1043E0006B00B2FBF3F50C4E356003E0094D0A4E4D
:1043F000356000BF00BF064D2D68C5F30315074E9D
:10440000705D054D2D68C540034E356070BD0000E0
:10441000083802400024F400B8000020A4C80308B3
:104420000348006840F470000149086070470000CC
:1044300088ED00E010B54FF48070FDF713FD4FF4E8
:104440008070FDF717FD4FF48070FDF7FDFC002133
:104450001148FEF75CF800210F48FEF752F80021E2
:104460000D48FEF74CF80C48FDF7FAFE42F2D00179
:104470000948FEF735F800BF0748006820F0010042
:104480000549086000BF03212D2001F0EDFD2D201E
:1044900001F0DCFD10BD00000020004010B500F070
:1044A00001F810BD2DE9F0410024AEE12046DB49C2
:1044B0000969421C0123934019400123934099420A
:1044C00001D1012100E0002100297DD000BF601C46
:1044D00001218140C843D149086100BF2046096AD3
:1044E00000EB800202EB8012CD4B53F832201140DA
:1044F00000EB800202EB801253F83220914201D18E
:10450000012100E000210029DFD004EB840000EB52
:104510008410C34951F83000012801D1002039E04E
:1045200004EB840000EB8410BD4951F830000428EE
:1045300001D101202EE004EB840000EB8410B84987
:1045400051F83000102801D1022023E004EB840050
:1045500000EB8410B24951F83000402801D103200B
:1045600018E004EB840000EB8410AD4951F83000F2
:10457000B0F5807F01D104200CE004EB840000EB57
:104580008410A74951F83000B0F5806F01D10520A3
:1045900000E006200546A348405DA04918314618B2
:1045A0003068A1494A5D7321914008409E49495DA8
:1045B00020FA01F7602F71D104EB840000EB841026
:1045C000974901EBC00000E01CE1406804EB840166
:1045D00001EB8411924A02EBC1018968884208D13B
:1045E00021468E4800F036FB21468C4800F052FBF5
:1045F00009E104EB840000EB8410894901EBC00061
:10460000406804EB840101EB8411854A02EBC1018F
:104610008968884210DA04EB840000EB84101146AC
:1046200001EBC0004068401C04EB840101EB8411E5
:1046300002EBC101486010E004EB840000EB841041
:10464000774901EBC0004068401E04EB840101EB98
:104650008411734A02EBC101486004EB840000EB53
:1046600084106F4901EBC000406804EB840101EB4A
:1046700084116B4A02EBC101896988420ED104EBB7
:10468000840000EB8410114601EBC000406A04EB8B
:10469000840101EB841102EBC101086204EB840088
:1046A00000EB84105E4901EBC000C068E8BB04EB7E
:1046B000840000EB841001EBC000C06904EB8401AE
:1046C00001EB8411564A02EBC101096A884256D2B5
:1046D00004EB840000EB8410114601EBC00028308D
:1046E00004EB840101EB841102EBC101C96950F8AC
:1046F0003100401E04EB840101EB841102EBC10187
:10470000486104EB840000EB8410114601EBC0000B
:10471000283004EB840101EB841102EBC101C9696B
:1047200000EBC1004068401E00E017E004EB84018C
:1047300001EB841102EBC101C86004EB840000EBC3
:104740008410114601EBC000C069401C04EB8401D9
:1047500001EB841102EBC101C86110E004EB84009D
:1047600000EB84102E4901EBC000C068401E04EB32
:10477000840101EB84112A4A02EBC101C86004EBF9
:10478000840000EB8410264901EBC0000069D8B911
:1047900004EB840000EB841001EBC000406904EBE3
:1047A000840101EB84111E4A02EBC10108613068EB
:1047B0001D494A5D7321914088431B494A5D602130
:1047C0009140084330601CE004EB840000EB84104F
:1047D000134901EBC0000069401E04EB840101EBAA
:1047E00084110F4A02EBC101086130680E494A5D2D
:1047F0007321914088430C494A5D40219140084310
:10480000306000BF00BF601CC4B2042CFFF64EAE87
:104810000248FDF734FDBDE8F081000000000140D2
:10482000180200205CC9030863C9030870B50120A1
:10483000FDF736FB0120FDF73BFB0120FDF722FBD6
:1048400000250EE04E480168681CB1FBF0F04FF403
:104850009641B0FBF1F4B4F5803F01D36D1C00E04C
:1048600000E0EFE700BF00214648FDF741FE294682
:104870004448FDF74CFE00214248FDF733FE414815
:10488000FDF7E9FC3F48FDF704FD00213D48FDF739
:1048900038FE00213B48FDF732FE3A48FDF7E0FCC8
:1048A000611E3848FDF71CFE4FF480513548FDF776
:1048B00079FD4FF480713348FDF774FD10213148C4
:1048C000FDF770FD01212F48FDF76CFD60224FF4CC
:1048D00080512C48FDF798FD60224FF480712948E3
:1048E000FDF792FD602210212648FDF78DFD602224
:1048F00001212448FDF788FD00224FF48051214812
:10490000FDF7D2FC00224FF480711E48FDF7CCFC6D
:10491000002210211B48FDF7C7FC00220121194885
:10492000FDF7C2FC60081749086400BF610815481C
:10493000FDF768FD60081349886300BF600848639D
:1049400000BF89140F48FDF782FC4FF480710D48B9
:10495000FDF77DFC10210B48FDF779FC012109488A
:10496000FDF775FC0748FDF785FC0648FDF77DFC63
:1049700001211B2001F078FB1B2001F067FB70BDBB
:10498000B80000200000014010B50420FDF76AFACD
:104990000420FDF76FFA0420FDF756FA0021314894
:1049A000FDF7A6FD53212F48FDF7B1FD2D48FDF77A
:1049B00052FC00212B48FDF7A4FD00212948FDF7FA
:1049C0009EFD2848FDF74CFC44F61F612548FDF785
:1049D00087FD602201212348FDF716FD602210218A
:1049E0002048FDF711FD60224FF480711D48FDF74E
:1049F0000BFD60224FF480511A48FDF705FD00229F
:104A000001211848FDF750FC002210211548FDF740
:104A10004BFC00224FF480711248FDF745FC002248
:104A20004FF480510F48FDF73FFC01210D48FDF781
:104A300089FC10210B48FDF785FC4FF48071094873
:104A4000FDF780FC4FF480510648FDF77BFC0548DC
:104A5000FDF71FFC0348FDF70DFC0248FDF705FCC0
:104A600010BD00000008004010B50820FDF7FAF95D
:104A70000820FDF7FFF90820FDF7E6F9002131488D
:104A8000FDF736FD53212F48FDF741FD2D48FDF779
:104A9000E2FB00212B48FDF734FD00212948FDF7FA
:104AA0002EFD2848FDF7DCFB44F61F612548FDF785
:104AB00017FD602201212348FDF7A6FC602210218A
:104AC0002048FDF7A1FC60224FF480711D48FDF7DE
:104AD0009BFC60224FF480511A48FDF795FC0022A0
:104AE00001211848FDF7E0FB002210211548FDF7D1
:104AF000DBFB00224FF480711248FDF7D5FB00224A
:104B00004FF480510F48FDF7CFFB01210D48FDF711
:104B100019FC10210B48FDF715FC4FF48071094872
:104B2000FDF710FC4FF480510648FDF70BFC0548DB
:104B3000FDF7AFFB0348FDF79DFB0248FDF795FB32
:104B400010BD0000000C004010B501F0D5F810BDFC
:104B500000B58FB00220FDF7A3F90220FDF7A8F9F8
:104B60000220FDF78FF900212F48FDF7C1FC00213D
:104B70002D48FDF7CCFC00212B48FDF7B3FC2A485B
:104B8000FDF769FB00212848FDF7BBFC0021264802
:104B9000FDF7B5FC2448FDF763FBD2212248FDF761
:104BA0009FFC4FF480712048FDF7FCFB60224FF41E
:104BB00080711D48FDF728FC00224FF480711A48CF
:104BC000FDF772FB02211848FDF71CFC1648FDF7A3
:104BD00060FB1548FDF749FB00BF1348C06840F46F
:104BE00080701149C86000BF6846FDF70DFA40208B
:104BF00002900D483C300090C01406904010059083
:104C0000C00007904FF0606009906A460121074894
:104C1000FDF780F90521392001F026FA392001F04D
:104C200015FA0FB000BD000000040140006402400E
:104C3000064951F820100968054A52F8202091438E
:104C4000024A52F82020116070470000B401002091
:104C50007401002010B5026A01EB810303EB81139C
:104C6000024C54F833309A43026210BD18020020FF
:104C7000064951F820100968054A52F820201143CE
:104C8000024A52F82020116070470000B401002051
:104C90007401002010B5C2684B1C01249C40A24343
:104CA000C26010BD024A52F8202011607047000017
:104CB0009401002030B587B004460D4694ED000AFB
:104CC000B8EEC00A1648D0ED000A80EE201A8DED2D
:104CD000001A94ED010AB8EEC00AD0ED000A80EE89
:104CE000201A8DED011A94ED020AB8EEC00AD0ED3B
:104CF000000A80EE201A8DED021A2B4601220321B4
:104D000005A801F01DFA6B460122032103A801F05A
:104D100017FA05AA03A9034801F016FA07B030BD37
:104D2000A40000209C00002008B507E04FF0805050
:104D30000F490860BFF34F8FBFF36F8F0D480068B6
:104D40000028F3D013E000BF4FF0FF326946094856
:104D5000006802F019FA0028F6D09DF803309DF89B
:104D600002209DF801109DF80000FBF7E1FEEAE744
:104D700004ED00E0B40000201CB51D4800901D4863
:104D800000234FF400421C4904681846A047184805
:104D90000090184800234022184904680120A047C9
:104DA000134800901348002320221449046802206D
:104DB000A0470F4800900F48002304220F490468C1
:104DC0000320A04700200E4B0E4A04210090084605
:104DD00002F04CF80C49086009E002F0B5FB0190C4
:104DE000044988688047012101A802F031FBF4E7FB
:104DF000010B00081C0B00200008024000100240BC
:104E0000BC280020AC280020B4000020002012495B
:104E10000870322001F070FE1DE0FDF72FFDFDF758
:104E200015FD07E04FF080500C490860BFF34F8F2D
:104E3000BFF36F8F084800780028F3D007E04FF0E9
:104E4000805006490860BFF34F8FBFF36F8F024851
:104E500000780128F3D0E0E7AC00002004ED00E08A
:104E6000322001F049FE984B93F82410186A974BB2
:104E70009A689047944B93F82C10986A934B9A68D1
:104E80009047914B93F83410186B904B9A68904769
:104E90008D4B93F83C10986B8C4B9A6890478A4BDB
:104EA00093F84410186C894B9A6890470020884901
:104EB00008800FE0844A92F82C10906A834A136AA3
:104EC00064229847804A92F82C10906A7F4A536A6D
:104ED0007F4A98477E4800886428EBD100207C49AF
:104EE00008800FE0784A92F83410106B774A136A02
:104EF00064229847744A92F83410106B734A536ACC
:104F0000734A9847724800886428EBD100207049A2
:104F100008800FE06C4A92F83C10906B6B4A136A61
:104F200064229847684A92F83C10906B674A536A2B
:104F3000674A9847664800886428EBD10020644996
:104F400008800FE0604A92F84410106C5F4A136AC0
:104F5000642298475C4A92F84410106C5B4A536A8A
:104F60005B4A98475A4800886428EBD1AAE0594820
:104F700090F9000007287DD2DFE800F004101C3013
:104F800054688E00504A92F82410106A4F4A1369F0
:104F90003C229847FF204F49087092E04A4A92F815
:104FA0002410106A494A13697D229847FF20494915
:104FB000087086E0444A92F82C10906A434A1369BC
:104FC000A7229847404A92F83410106B3F4A136961
:104FD000BA229847FF203F49087072E03A4A92F897
:104FE0002C10906A394A13694D229847364A92F834
:104FF0003410106B354A13695D229847324A92F893
:105000003C10906B314A1369CB2298472E4A92F894
:105010004410106C2D4A1369CA229847FF202D496D
:1050200008704EE0284A92F82C10906A274A1369BB
:105030001E229847244A92F83410106B234A1369B1
:1050400030229847FF20234908703AE01E4A92F820
:105050002C10906A1D4A1369912298471A4A92F8B7
:105060003410106B194A1369A3229847164A92F814
:105070003C1000E024E0906B144A136953229847D7
:10508000114A92F84410106C104A13695222984742
:10509000FF201049087014E00B4A92F82C10906A17
:1050A0000A4A1369C3229847074A92F83410106BD2
:1050B000064A1369D5229847FF200649087000E088
:1050C00000BF00BF53E70000C8C7030814CA0308A5
:1050D0006C0B0020640B002008B500BF642001F0B9
:1050E0000BFD09490868804708490868804709E0BE
:1050F00002F02AFA00900549486980470A2168466B
:1051000002F0A6F9F4E7000034C803088CC80308CD
:105110008AB0642001F0F0FC22E013E09DF8040066
:10512000104951F8200068B19DF80400102809DAF0
:105130009DF805109DF804000A4B53F820200DF14E
:10514000060090470848416801A888470028E5D133
:105150004FF0805005490860BFF34F8FBFF36F8F4A
:10516000DBE70000BC000020C4C8030804ED00E039
:1051700008B5322001F0C0FC8E48816900208847C4
:105180008C488169012088478A48816902208847C4
:10519000884881690320884786480168002088473D
:1051A00084480168012088478248016802208847B6
:1051B00080480168032088474FF47A64651040F600
:1051C00054367D4FF5E07D4890F9000007286ED2F7
:1051D000DFE800F00417293C4E6E8C00002078496F
:1051E00008604FF448700090724812232022D0F8D3
:1051F00004C0084601680020E047FF206F4908709E
:1052000093E06F4804604FF448700090694812239F
:105210002022D0F804C06A4801680020E047FF203F
:105220006649087081E00020664908604FF44870C4
:105230000090604810232022D0F804C0084601687E
:105240000120E047FF205D4908706EE05D48056081
:105250004FF448700090574810232022D0F804C023
:10526000584801680120E047FF20544908705CE07D
:105270000020554908604FF4487000904D481023B5
:105280002022D0F804C0084601680220E0474FF40D
:1052900048700090474810232022D0F804C04A48A4
:1052A00001680320E047FF20444908703DE03BE0EF
:1052B000454806604FF4FA7000903E4810232022C3
:1052C000D0F804C0404801680220E0474FF4FA706B
:1052D0000090384810232022D0F804C03A480168D2
:1052E0000320E047FF20354908701EE0364807607C
:1052F0004FF4FA7000902F4810232022D0F804C0F9
:10530000314801680220E0474FF4FA7000902948C4
:1053100010232022D0F804C02B4801680320E04766
:10532000FF202649087000E000BF00BF21488168C7
:105330000020884722490968884204D01D48016935
:105340000020884703E01B4841690020884719482E
:105350008168012088471B490968884204D01548A4
:1053600001690120884703E012484169012088470C
:10537000104881680220884713490968884207D18C
:105380000C488168032088470F490968884208D083
:1053900008480169022088470648016903208847B8
:1053A00007E0044841690220884702484169032018
:1053B000884708E780C90308A2FEFFFF780B00209A
:1053C0007C0B0020800B0020840B002030B589B0BE
:1053D00004460D46207840B2064908700A208DF830
:1053E000000000208DF801000348016868468847E6
:1053F00009B030BD640B0020C4C80308F0B58BB001
:1054000004460F4641484168002088473F484168AC
:10541000012088473D484168022088473B48416851
:1054200003208847257835B1012D1BD0022D30D0BF
:10543000032D5CD144E0002000903448B4234FF4A5
:1054400016624FF42F7106680020B04700200090CC
:105450002E48B42340F6C4124FF4FA7106680120B6
:10546000B04745E0B42000902848B4234FF41662BA
:105470004FF42F7106680020B047B42000902348F5
:10548000B42340F6C4124FF4FA7106680120B04705
:105490002EE0B42000901D48B4234FF416624FF460
:1054A0002F7106680220B047B42000901748B4233B
:1054B0004FF416624FF42F7106680320B04717E0CF
:1054C000002000901148B4234FF416624FF42F715E
:1054D00006680220B047002000900C48B4234FF427
:1054E00016624FF42F7106680320B04700E000BF3A
:1054F00000BF0D208DF8080000208DF80900044839
:10550000016802A888470BB0F0BD0000380B0020EE
:10551000C4C8030870B58AB004460E46257835B174
:10552000012D09D0022D0CD0032D14D10EE04FF423
:105530008010FDF75BFD0FE04FF48010FDF79EFD3E
:105540000AE04FF40010FDF751FD05E04FF40010A4
:10555000FDF794FD00E000BF00BF0C208DF80400B3
:1055600000208DF805000348016801A888470AB0AB
:1055700070BD0000C4C8030830B589B004460D46AC
:10558000207840B2064908700B208DF800000020FA
:105590008DF80100034801686846884709B030BDAE
:1055A000780B0020C4C80308FEB504460D46002051
:1055B00002900121CDE90010034802AB18222946D0
:1055C00086682046B047FEBD74CA0308FEB504468F
:1055D0000D460120029000200121CDE90010044871
:1055E00002AB1822294686682046B047FEBD00005F
:1055F00074CA030870B504460D4611E001F034FB8F
:1056000004F11000FBF7A2FD00B10AE002F0F0F88F
:105610004FF080500B490860BFF34F8FBFF36F8F7F
:10562000ECE700BF294604F11000FBF76DFDA06C0C
:1056300020B90120A064204600F08EF802F0D8F8CE
:1056400070BD000004ED00E070B504460D4611E0A9
:1056500001F00AFB04F11000FBF778FD00B10AE04D
:1056600002F0C6F84FF080500B490860BFF34F8F2F
:10567000BFF36F8FECE700BF294604F11000FBF782
:1056800043FDA06C20B90120A064204600F038F84A
:1056900002F0AEF870BD000004ED00E070B5054604
:1056A0000E4615480068016828468847044611E000
:1056B00001F0DAFA04F11000FBF748FD00B10AE04E
:1056C00002F096F84FF080500C490860BFF34F8FFE
:1056D000BFF36F8FECE700BF314604F11000FBF71A
:1056E00013FDA06C20B90120A064204600F01EF834
:1056F00002F07EF870BD0000500B002004ED00E0C9
:1057000010B5044604F110002168FBF733FD0220B8
:10571000216881F82D002068C078011D02480068CA
:1057200042682046904710BD280B002070B5054602
:105730002C68FF2020706070A11C05F11000FBF7A1
:1057400019FDA078C11C03480068426828469047AC
:1057500070BD0000500B002010B5044604F110008D
:105760002168FBF707FD2068017C03480068426858
:105770002046904710BD0000440B002010B50446A1
:1057800014480068816820468847206890F82C00FB
:10579000D8B1206890F82C00616881F826000020BC
:1057A000616881F82700552226216068FAF7ADFD6F
:1057B00008480068C16820468847064800684FF4DA
:1057C000FA6142692046904710BD2046FBF737FA40
:1057D00000BFF9E7280B002010B504460848006810
:1057E00081682046884704F11000FBF7A8FC18B137
:1057F0002046FFF7B1FF01E00020A06410BD0000CB
:10580000440B002010B50446084800688168204613
:10581000884704F11000FBF792FC18B12046FFF70F
:1058200085FF01E00020A06410BD0000500B0020A7
:1058300010B5024800F02AFA10BD0000004C0040EC
:1058400000B58FB04FF40020FCF70CFB4FF40020A4
:10585000FCF710FB4FF40020FCF7F6FA2648FCF7A3
:105860006DFE264B002226492348FCF799FE0021B5
:105870002148FCF783FF00211F48FCF773FF00213C
:105880001D48FCF769FF00211B48FCF771FF04214C
:105890001948FCF779FF1848FCF75DFE6846FCF7ED
:1058A000B3FB402002901448001D009000150590A5
:1058B000400409906A4604211248FCF72BFB0E486D
:1058C000FCF75EFE002002900B48001D00900015C2
:1058D0000590400409906A4602210A48FCF71AFB29
:1058E0000548FCF73DFE0321342000F0BDFB3420C9
:1058F00000F0ACFB0FB000BD004C004080841E00E7
:1059000080DE80020060024010B5024800F0BEF95F
:1059100010BD00000050004000B58FB04FF4801063
:10592000FCF7A0FA4FF48010FCF7A4FA4FF48010B3
:10593000FCF78AFA2848FCF7F8FD4FF4E1334FF4FE
:10594000004226492448FCF72BFE00212248FCF7A0
:1059500015FF4FF400412048FCF704FF00211E48CA
:10596000FCF7FAFE00211C48FCF702FF04211A484C
:10597000FCF70AFF1848FCF7EEFD6846FCF744FB0D
:10598000402002901448001D00900015059040042E
:1059900009906A4607211248FCF7BCFA0E48FCF74A
:1059A000EFFD002002900C48001D009000150590AE
:1059B000400409906A4600210948FCF7ABFA064802
:1059C000FCF7CEFD0321352000F04EFB352000F022
:1059D0003DFB0FB000BD00000050004080DE8002A3
:1059E0000060024010B5024800F050F910BD000000
:1059F0000010014000B58FB01020FCF751FA1020C4
:105A0000FCF756FA1020FCF73DFA2848FCF78DFD0C
:105A10004FF461234FF4004225492448FCF7C0FDB0
:105A200000212248FCF7AAFE4FF400411F48FCF772
:105A300099FE00211D48FCF78FFE00211B48FCF752
:105A400097FE0C211948FCF79FFE1848FCF783FDD0
:105A50006846FCF7D9FA402002901448001D0090D7
:105A600000150590400409906A4607211148FCF78B
:105A700051FA0E48FCF784FD002002900B48001DEF
:105A8000009000150590400409906A4605210948D8
:105A9000FCF740FA0548FCF763FD0321252000F0E0
:105AA000E3FA252000F0D2FA0FB000BD001001404B
:105AB00000BD01050064024000B58FB04FF48020A6
:105AC000FCF7D0F94FF48020FCF7D4F94FF4802094
:105AD000FCF7BAF92E48FCF731FD2E4B4FF400428B
